{
  "_format": "hh-sol-artifact-1",
  "contractName": "TestERC20",
  "sourceName": "contracts/test/TestERC20.sol",
  "abi": [
    {
      "inputs": [
        {
          "internalType": "string",
          "name": "name_",
          "type": "string"
        },
        {
          "internalType": "string",
          "name": "symbol_",
          "type": "string"
        },
        {
          "internalType": "uint256",
          "name": "amountToMint",
          "type": "uint256"
        }
      ],
      "stateMutability": "nonpayable",
      "type": "constructor"
    },
    {
      "anonymous": false,
      "inputs": [
        {
          "indexed": true,
          "internalType": "address",
          "name": "owner",
          "type": "address"
        },
        {
          "indexed": true,
          "internalType": "address",
          "name": "spender",
          "type": "address"
        },
        {
          "indexed": false,
          "internalType": "uint256",
          "name": "value",
          "type": "uint256"
        }
      ],
      "name": "Approval",
      "type": "event"
    },
    {
      "anonymous": false,
      "inputs": [
        {
          "indexed": true,
          "internalType": "address",
          "name": "from",
          "type": "address"
        },
        {
          "indexed": true,
          "internalType": "address",
          "name": "to",
          "type": "address"
        },
        {
          "indexed": false,
          "internalType": "uint256",
          "name": "value",
          "type": "uint256"
        }
      ],
      "name": "Transfer",
      "type": "event"
    },
    {
      "inputs": [
        {
          "internalType": "address",
          "name": "owner",
          "type": "address"
        },
        {
          "internalType": "address",
          "name": "spender",
          "type": "address"
        }
      ],
      "name": "allowance",
      "outputs": [
        {
          "internalType": "uint256",
          "name": "",
          "type": "uint256"
        }
      ],
      "stateMutability": "view",
      "type": "function"
    },
    {
      "inputs": [
        {
          "internalType": "address",
          "name": "spender",
          "type": "address"
        },
        {
          "internalType": "uint256",
          "name": "amount",
          "type": "uint256"
        }
      ],
      "name": "approve",
      "outputs": [
        {
          "internalType": "bool",
          "name": "",
          "type": "bool"
        }
      ],
      "stateMutability": "nonpayable",
      "type": "function"
    },
    {
      "inputs": [
        {
          "internalType": "address",
          "name": "account",
          "type": "address"
        }
      ],
      "name": "balanceOf",
      "outputs": [
        {
          "internalType": "uint256",
          "name": "",
          "type": "uint256"
        }
      ],
      "stateMutability": "view",
      "type": "function"
    },
    {
      "inputs": [],
      "name": "decimals",
      "outputs": [
        {
          "internalType": "uint8",
          "name": "",
          "type": "uint8"
        }
      ],
      "stateMutability": "view",
      "type": "function"
    },
    {
      "inputs": [
        {
          "internalType": "address",
          "name": "spender",
          "type": "address"
        },
        {
          "internalType": "uint256",
          "name": "subtractedValue",
          "type": "uint256"
        }
      ],
      "name": "decreaseAllowance",
      "outputs": [
        {
          "internalType": "bool",
          "name": "",
          "type": "bool"
        }
      ],
      "stateMutability": "nonpayable",
      "type": "function"
    },
    {
      "inputs": [
        {
          "internalType": "address",
          "name": "spender",
          "type": "address"
        },
        {
          "internalType": "uint256",
          "name": "addedValue",
          "type": "uint256"
        }
      ],
      "name": "increaseAllowance",
      "outputs": [
        {
          "internalType": "bool",
          "name": "",
          "type": "bool"
        }
      ],
      "stateMutability": "nonpayable",
      "type": "function"
    },
    {
      "inputs": [],
      "name": "name",
      "outputs": [
        {
          "internalType": "string",
          "name": "",
          "type": "string"
        }
      ],
      "stateMutability": "view",
      "type": "function"
    },
    {
      "inputs": [
        {
          "internalType": "address",
          "name": "to",
          "type": "address"
        },
        {
          "internalType": "uint256",
          "name": "amount",
          "type": "uint256"
        }
      ],
      "name": "setBalance",
      "outputs": [],
      "stateMutability": "nonpayable",
      "type": "function"
    },
    {
      "inputs": [],
      "name": "symbol",
      "outputs": [
        {
          "internalType": "string",
          "name": "",
          "type": "string"
        }
      ],
      "stateMutability": "view",
      "type": "function"
    },
    {
      "inputs": [],
      "name": "totalSupply",
      "outputs": [
        {
          "internalType": "uint256",
          "name": "",
          "type": "uint256"
        }
      ],
      "stateMutability": "view",
      "type": "function"
    },
    {
      "inputs": [
        {
          "internalType": "address",
          "name": "to",
          "type": "address"
        },
        {
          "internalType": "uint256",
          "name": "amount",
          "type": "uint256"
        }
      ],
      "name": "transfer",
      "outputs": [
        {
          "internalType": "bool",
          "name": "",
          "type": "bool"
        }
      ],
      "stateMutability": "nonpayable",
      "type": "function"
    },
    {
      "inputs": [
        {
          "internalType": "address",
          "name": "from",
          "type": "address"
        },
        {
          "internalType": "address",
          "name": "to",
          "type": "address"
        },
        {
          "internalType": "uint256",
          "name": "amount",
          "type": "uint256"
        }
      ],
      "name": "transferFrom",
      "outputs": [
        {
          "internalType": "bool",
          "name": "",
          "type": "bool"
        }
      ],
      "stateMutability": "nonpayable",
      "type": "function"
    }
  ],
  "bytecode": "0x60806040523480156200001157600080fd5b5060405162001407380380620014078339810160408190526200003491620003be565b82826003620000448382620004bf565b506004620000538282620004bf565b5050506200006833826200007160201b60201c565b505050620005d3565b6001600160a01b03821660009081526020819052604090205481811015620000af57620000aa83620000a48385620005a1565b620000cf565b505050565b81811115620000aa57620000aa83620000c98484620005a1565b620001a7565b6001600160a01b0382166200012b5760405162461bcd60e51b815260206004820152601f60248201527f45524332303a206d696e7420746f20746865207a65726f20616464726573730060448201526064015b60405180910390fd5b80600260008282546200013f9190620005bd565b90915550506001600160a01b038216600090815260208190526040812080548392906200016e908490620005bd565b90915550506040518181526001600160a01b03831690600090600080516020620013e78339815191529060200160405180910390a35050565b6001600160a01b038216620002095760405162461bcd60e51b815260206004820152602160248201527f45524332303a206275726e2066726f6d20746865207a65726f206164647265736044820152607360f81b606482015260840162000122565b6001600160a01b038216600090815260208190526040902054818110156200027f5760405162461bcd60e51b815260206004820152602260248201527f45524332303a206275726e20616d6f756e7420657863656564732062616c616e604482015261636560f01b606482015260840162000122565b6001600160a01b0383166000908152602081905260408120838303905560028054849290620002b0908490620005a1565b90915550506040518281526000906001600160a01b03851690600080516020620013e78339815191529060200160405180910390a3620000aa836000846001600160e01b038416565b634e487b7160e01b600052604160045260246000fd5b600082601f8301126200032157600080fd5b81516001600160401b03808211156200033e576200033e620002f9565b604051601f8301601f19908116603f01168101908282118183101715620003695762000369620002f9565b816040528381526020925086838588010111156200038657600080fd5b600091505b83821015620003aa57858201830151818301840152908201906200038b565b600093810190920192909252949350505050565b600080600060608486031215620003d457600080fd5b83516001600160401b0380821115620003ec57600080fd5b620003fa878388016200030f565b945060208601519150808211156200041157600080fd5b5062000420868287016200030f565b925050604084015190509250925092565b600181811c908216806200044657607f821691505b6020821081036200046757634e487b7160e01b600052602260045260246000fd5b50919050565b601f821115620000aa57600081815260208120601f850160051c81016020861015620004965750805b601f850160051c820191505b81811015620004b757828155600101620004a2565b505050505050565b81516001600160401b03811115620004db57620004db620002f9565b620004f381620004ec845462000431565b846200046d565b602080601f8311600181146200052b5760008415620005125750858301515b600019600386901b1c1916600185901b178555620004b7565b600085815260208120601f198616915b828110156200055c578886015182559484019460019091019084016200053b565b50858210156200057b5787850151600019600388901b60f8161c191681555b5050505050600190811b01905550565b634e487b7160e01b600052601160045260246000fd5b81810381811115620005b757620005b76200058b565b92915050565b80820180821115620005b757620005b76200058b565b610e0480620005e36000396000f3fe608060405234801561001057600080fd5b50600436106100d45760003560e01c806370a0823111610081578063a9059cbb1161005b578063a9059cbb146101b2578063dd62ed3e146101c5578063e30443bc1461020b57600080fd5b806370a082311461016157806395d89b4114610197578063a457c2d71461019f57600080fd5b806323b872dd116100b257806323b872dd1461012c578063313ce5671461013f578063395093511461014e57600080fd5b806306fdde03146100d9578063095ea7b3146100f757806318160ddd1461011a575b600080fd5b6100e1610220565b6040516100ee9190610bd6565b60405180910390f35b61010a610105366004610c6b565b6102b2565b60405190151581526020016100ee565b6002545b6040519081526020016100ee565b61010a61013a366004610c95565b6102cc565b604051601281526020016100ee565b61010a61015c366004610c6b565b6102f0565b61011e61016f366004610cd1565b73ffffffffffffffffffffffffffffffffffffffff1660009081526020819052604090205490565b6100e161033c565b61010a6101ad366004610c6b565b61034b565b61010a6101c0366004610c6b565b610407565b61011e6101d3366004610cf3565b73ffffffffffffffffffffffffffffffffffffffff918216600090815260016020908152604080832093909416825291909152205490565b61021e610219366004610c6b565b610415565b005b60606003805461022f90610d26565b80601f016020809104026020016040519081016040528092919081815260200182805461025b90610d26565b80156102a85780601f1061027d576101008083540402835291602001916102a8565b820191906000526020600020905b81548152906001019060200180831161028b57829003601f168201915b5050505050905090565b6000336102c0818585610476565b60019150505b92915050565b6000336102da8582856105f5565b6102e58585856106b2565b506001949350505050565b33600081815260016020908152604080832073ffffffffffffffffffffffffffffffffffffffff871684529091528120549091906102c09082908690610337908790610da8565b610476565b60606004805461022f90610d26565b33600081815260016020908152604080832073ffffffffffffffffffffffffffffffffffffffff87168452909152812054909190838110156103fa5760405162461bcd60e51b815260206004820152602560248201527f45524332303a2064656372656173656420616c6c6f77616e63652062656c6f7760448201527f207a65726f00000000000000000000000000000000000000000000000000000060648201526084015b60405180910390fd5b6102e58286868403610476565b6000336102c08185856106b2565b73ffffffffffffffffffffffffffffffffffffffff82166000908152602081905260409020548181101561045b57610456836104518385610dbb565b610917565b505050565b8181111561045657610456836104718484610dbb565b610a1d565b73ffffffffffffffffffffffffffffffffffffffff83166104fe5760405162461bcd60e51b8152602060048201526024808201527f45524332303a20617070726f76652066726f6d20746865207a65726f2061646460448201527f726573730000000000000000000000000000000000000000000000000000000060648201526084016103f1565b73ffffffffffffffffffffffffffffffffffffffff82166105875760405162461bcd60e51b815260206004820152602260248201527f45524332303a20617070726f766520746f20746865207a65726f20616464726560448201527f737300000000000000000000000000000000000000000000000000000000000060648201526084016103f1565b73ffffffffffffffffffffffffffffffffffffffff83811660008181526001602090815260408083209487168084529482529182902085905590518481527f8c5be1e5ebec7d5bd14f71427d1e84f3dd0314c0f7b2291e5b200ac8c7c3b925910160405180910390a3505050565b73ffffffffffffffffffffffffffffffffffffffff8381166000908152600160209081526040808320938616835292905220547fffffffffffffffffffffffffffffffffffffffffffffffffffffffffffffffff81146106ac578181101561069f5760405162461bcd60e51b815260206004820152601d60248201527f45524332303a20696e73756666696369656e7420616c6c6f77616e636500000060448201526064016103f1565b6106ac8484848403610476565b50505050565b73ffffffffffffffffffffffffffffffffffffffff831661073b5760405162461bcd60e51b815260206004820152602560248201527f45524332303a207472616e736665722066726f6d20746865207a65726f20616460448201527f647265737300000000000000000000000000000000000000000000000000000060648201526084016103f1565b73ffffffffffffffffffffffffffffffffffffffff82166107c45760405162461bcd60e51b815260206004820152602360248201527f45524332303a207472616e7366657220746f20746865207a65726f206164647260448201527f657373000000000000000000000000000000000000000000000000000000000060648201526084016103f1565b73ffffffffffffffffffffffffffffffffffffffff8316600090815260208190526040902054818110156108605760405162461bcd60e51b815260206004820152602660248201527f45524332303a207472616e7366657220616d6f756e742065786365656473206260448201527f616c616e6365000000000000000000000000000000000000000000000000000060648201526084016103f1565b73ffffffffffffffffffffffffffffffffffffffff8085166000908152602081905260408082208585039055918516815290812080548492906108a4908490610da8565b925050819055508273ffffffffffffffffffffffffffffffffffffffff168473ffffffffffffffffffffffffffffffffffffffff167fddf252ad1be2c89b69c2b068fc378daa952ba7f163c4a11628f55a4df523b3ef8460405161090a91815260200190565b60405180910390a36106ac565b73ffffffffffffffffffffffffffffffffffffffff821661097a5760405162461bcd60e51b815260206004820152601f60248201527f45524332303a206d696e7420746f20746865207a65726f20616464726573730060448201526064016103f1565b806002600082825461098c9190610da8565b909155505073ffffffffffffffffffffffffffffffffffffffff8216600090815260208190526040812080548392906109c6908490610da8565b909155505060405181815273ffffffffffffffffffffffffffffffffffffffff8316906000907fddf252ad1be2c89b69c2b068fc378daa952ba7f163c4a11628f55a4df523b3ef9060200160405180910390a35050565b73ffffffffffffffffffffffffffffffffffffffff8216610aa65760405162461bcd60e51b815260206004820152602160248201527f45524332303a206275726e2066726f6d20746865207a65726f2061646472657360448201527f730000000000000000000000000000000000000000000000000000000000000060648201526084016103f1565b73ffffffffffffffffffffffffffffffffffffffff821660009081526020819052604090205481811015610b425760405162461bcd60e51b815260206004820152602260248201527f45524332303a206275726e20616d6f756e7420657863656564732062616c616e60448201527f636500000000000000000000000000000000000000000000000000000000000060648201526084016103f1565b73ffffffffffffffffffffffffffffffffffffffff83166000908152602081905260408120838303905560028054849290610b7e908490610dbb565b909155505060405182815260009073ffffffffffffffffffffffffffffffffffffffff8516907fddf252ad1be2c89b69c2b068fc378daa952ba7f163c4a11628f55a4df523b3ef9060200160405180910390a3505050565b600060208083528351808285015260005b81811015610c0357858101830151858201604001528201610be7565b5060006040828601015260407fffffffffffffffffffffffffffffffffffffffffffffffffffffffffffffffe0601f8301168501019250505092915050565b803573ffffffffffffffffffffffffffffffffffffffff81168114610c6657600080fd5b919050565b60008060408385031215610c7e57600080fd5b610c8783610c42565b946020939093013593505050565b600080600060608486031215610caa57600080fd5b610cb384610c42565b9250610cc160208501610c42565b9150604084013590509250925092565b600060208284031215610ce357600080fd5b610cec82610c42565b9392505050565b60008060408385031215610d0657600080fd5b610d0f83610c42565b9150610d1d60208401610c42565b90509250929050565b600181811c90821680610d3a57607f821691505b602082108103610d73577f4e487b7100000000000000000000000000000000000000000000000000000000600052602260045260246000fd5b50919050565b7f4e487b7100000000000000000000000000000000000000000000000000000000600052601160045260246000fd5b808201808211156102c6576102c6610d79565b818103818111156102c6576102c6610d7956fea2646970667358221220bd74e5f20bdce7ca2d8057bac12b40ca27f47945511b84ec276a11d2f8756da964736f6c63430008110033ddf252ad1be2c89b69c2b068fc378daa952ba7f163c4a11628f55a4df523b3ef",
  "linkReferences": {},
  "deployedLinkReferences": {}
}